{
  "_format": "hh-sol-artifact-1",
  "contractName": "PropertyRegistry",
  "sourceName": "contracts/PropertyRegistry.sol",
  "abi": [
    {
      "inputs": [],
      "stateMutability": "nonpayable",
      "type": "constructor"
    },
    {
      "anonymous": false,
      "inputs": [
        {
          "indexed": true,
          "internalType": "uint256",
          "name": "propertyId",
          "type": "uint256"
        },
        {
          "indexed": true,
          "internalType": "address",
          "name": "from",
          "type": "address"
        },
        {
          "indexed": true,
          "internalType": "address",
          "name": "to",
          "type": "address"
        }
      ],
      "name": "OwnershipTransferred",
      "type": "event"
    },
    {
      "anonymous": false,
      "inputs": [
        {
          "indexed": true,
          "internalType": "uint256",
          "name": "propertyId",
          "type": "uint256"
        },
        {
          "indexed": false,
          "internalType": "uint256",
          "name": "price",
          "type": "uint256"
        },
        {
          "indexed": false,
          "internalType": "uint256",
          "name": "timestamp",
          "type": "uint256"
        }
      ],
      "name": "PropertyListedForSale",
      "type": "event"
    },
    {
      "anonymous": false,
      "inputs": [
        {
          "indexed": true,
          "internalType": "uint256",
          "name": "propertyId",
          "type": "uint256"
        },
        {
          "indexed": true,
          "internalType": "address",
          "name": "owner",
          "type": "address"
        },
        {
          "indexed": false,
          "internalType": "string",
          "name": "propertyAddress",
          "type": "string"
        },
        {
          "indexed": false,
          "internalType": "uint256",
          "name": "timestamp",
          "type": "uint256"
        }
      ],
      "name": "PropertyRegistered",
      "type": "event"
    },
    {
      "anonymous": false,
      "inputs": [
        {
          "indexed": true,
          "internalType": "uint256",
          "name": "propertyId",
          "type": "uint256"
        },
        {
          "indexed": true,
          "internalType": "address",
          "name": "previousOwner",
          "type": "address"
        },
        {
          "indexed": true,
          "internalType": "address",
          "name": "newOwner",
          "type": "address"
        },
        {
          "indexed": false,
          "internalType": "uint256",
          "name": "price",
          "type": "uint256"
        },
        {
          "indexed": false,
          "internalType": "uint256",
          "name": "timestamp",
          "type": "uint256"
        }
      ],
      "name": "PropertySold",
      "type": "event"
    },
    {
      "anonymous": false,
      "inputs": [
        {
          "indexed": true,
          "internalType": "uint256",
          "name": "propertyId",
          "type": "uint256"
        },
        {
          "indexed": true,
          "internalType": "address",
          "name": "verifier",
          "type": "address"
        },
        {
          "indexed": false,
          "internalType": "uint256",
          "name": "timestamp",
          "type": "uint256"
        }
      ],
      "name": "PropertyVerified",
      "type": "event"
    },
    {
      "anonymous": false,
      "inputs": [
        {
          "indexed": true,
          "internalType": "uint256",
          "name": "propertyId",
          "type": "uint256"
        },
        {
          "indexed": false,
          "internalType": "enum PropertyRegistry.PropertyStatus",
          "name": "oldStatus",
          "type": "uint8"
        },
        {
          "indexed": false,
          "internalType": "enum PropertyRegistry.PropertyStatus",
          "name": "newStatus",
          "type": "uint8"
        }
      ],
      "name": "StatusChanged",
      "type": "event"
    },
    {
      "anonymous": false,
      "inputs": [
        {
          "indexed": true,
          "internalType": "address",
          "name": "verifier",
          "type": "address"
        }
      ],
      "name": "VerifierAdded",
      "type": "event"
    },
    {
      "anonymous": false,
      "inputs": [
        {
          "indexed": true,
          "internalType": "address",
          "name": "verifier",
          "type": "address"
        }
      ],
      "name": "VerifierRemoved",
      "type": "event"
    },
    {
      "inputs": [
        {
          "internalType": "address",
          "name": "_verifier",
          "type": "address"
        }
      ],
      "name": "addVerifier",
      "outputs": [],
      "stateMutability": "nonpayable",
      "type": "function"
    },
    {
      "inputs": [],
      "name": "admin",
      "outputs": [
        {
          "internalType": "address",
          "name": "",
          "type": "address"
        }
      ],
      "stateMutability": "view",
      "type": "function"
    },
    {
      "inputs": [
        {
          "internalType": "uint256",
          "name": "_propertyId",
          "type": "uint256"
        }
      ],
      "name": "buyProperty",
      "outputs": [],
      "stateMutability": "payable",
      "type": "function"
    },
    {
      "inputs": [],
      "name": "getContractBalance",
      "outputs": [
        {
          "internalType": "uint256",
          "name": "",
          "type": "uint256"
        }
      ],
      "stateMutability": "view",
      "type": "function"
    },
    {
      "inputs": [
        {
          "internalType": "address",
          "name": "_owner",
          "type": "address"
        }
      ],
      "name": "getOwnerProperties",
      "outputs": [
        {
          "internalType": "uint256[]",
          "name": "",
          "type": "uint256[]"
        }
      ],
      "stateMutability": "view",
      "type": "function"
    },
    {
      "inputs": [
        {
          "internalType": "uint256",
          "name": "_propertyId",
          "type": "uint256"
        }
      ],
      "name": "getOwnershipHistory",
      "outputs": [
        {
          "components": [
            {
              "internalType": "address",
              "name": "previousOwner",
              "type": "address"
            },
            {
              "internalType": "address",
              "name": "newOwner",
              "type": "address"
            },
            {
              "internalType": "uint256",
              "name": "timestamp",
              "type": "uint256"
            },
            {
              "internalType": "uint256",
              "name": "price",
              "type": "uint256"
            },
            {
              "internalType": "string",
              "name": "transactionType",
              "type": "string"
            }
          ],
          "internalType": "struct PropertyRegistry.OwnershipRecord[]",
          "name": "",
          "type": "tuple[]"
        }
      ],
      "stateMutability": "view",
      "type": "function"
    },
    {
      "inputs": [
        {
          "internalType": "uint256",
          "name": "_propertyId",
          "type": "uint256"
        }
      ],
      "name": "getProperty",
      "outputs": [
        {
          "components": [
            {
              "internalType": "uint256",
              "name": "id",
              "type": "uint256"
            },
            {
              "internalType": "address",
              "name": "owner",
              "type": "address"
            },
            {
              "internalType": "string",
              "name": "propertyAddress",
              "type": "string"
            },
            {
              "internalType": "string",
              "name": "description",
              "type": "string"
            },
            {
              "internalType": "uint256",
              "name": "area",
              "type": "uint256"
            },
            {
              "internalType": "uint256",
              "name": "registrationDate",
              "type": "uint256"
            },
            {
              "internalType": "uint256",
              "name": "price",
              "type": "uint256"
            },
            {
              "internalType": "enum PropertyRegistry.PropertyStatus",
              "name": "status",
              "type": "uint8"
            },
            {
              "internalType": "bool",
              "name": "exists",
              "type": "bool"
            },
            {
              "internalType": "bytes32",
              "name": "documentHash",
              "type": "bytes32"
            }
          ],
          "internalType": "struct PropertyRegistry.Property",
          "name": "",
          "type": "tuple"
        }
      ],
      "stateMutability": "view",
      "type": "function"
    },
    {
      "inputs": [],
      "name": "getTotalProperties",
      "outputs": [
        {
          "internalType": "uint256",
          "name": "",
          "type": "uint256"
        }
      ],
      "stateMutability": "view",
      "type": "function"
    },
    {
      "inputs": [
        {
          "internalType": "address",
          "name": "_addr",
          "type": "address"
        }
      ],
      "name": "isVerifier",
      "outputs": [
        {
          "internalType": "bool",
          "name": "",
          "type": "bool"
        }
      ],
      "stateMutability": "view",
      "type": "function"
    },
    {
      "inputs": [
        {
          "internalType": "uint256",
          "name": "_propertyId",
          "type": "uint256"
        },
        {
          "internalType": "uint256",
          "name": "_price",
          "type": "uint256"
        }
      ],
      "name": "listForSale",
      "outputs": [],
      "stateMutability": "nonpayable",
      "type": "function"
    },
    {
      "inputs": [
        {
          "internalType": "uint256",
          "name": "_propertyId",
          "type": "uint256"
        },
        {
          "internalType": "bool",
          "name": "_disputed",
          "type": "bool"
        }
      ],
      "name": "markDisputed",
      "outputs": [],
      "stateMutability": "nonpayable",
      "type": "function"
    },
    {
      "inputs": [
        {
          "internalType": "address",
          "name": "",
          "type": "address"
        },
        {
          "internalType": "uint256",
          "name": "",
          "type": "uint256"
        }
      ],
      "name": "ownerProperties",
      "outputs": [
        {
          "internalType": "uint256",
          "name": "",
          "type": "uint256"
        }
      ],
      "stateMutability": "view",
      "type": "function"
    },
    {
      "inputs": [
        {
          "internalType": "uint256",
          "name": "",
          "type": "uint256"
        },
        {
          "internalType": "uint256",
          "name": "",
          "type": "uint256"
        }
      ],
      "name": "ownershipHistory",
      "outputs": [
        {
          "internalType": "address",
          "name": "previousOwner",
          "type": "address"
        },
        {
          "internalType": "address",
          "name": "newOwner",
          "type": "address"
        },
        {
          "internalType": "uint256",
          "name": "timestamp",
          "type": "uint256"
        },
        {
          "internalType": "uint256",
          "name": "price",
          "type": "uint256"
        },
        {
          "internalType": "string",
          "name": "transactionType",
          "type": "string"
        }
      ],
      "stateMutability": "view",
      "type": "function"
    },
    {
      "inputs": [
        {
          "internalType": "uint256",
          "name": "",
          "type": "uint256"
        }
      ],
      "name": "properties",
      "outputs": [
        {
          "internalType": "uint256",
          "name": "id",
          "type": "uint256"
        },
        {
          "internalType": "address",
          "name": "owner",
          "type": "address"
        },
        {
          "internalType": "string",
          "name": "propertyAddress",
          "type": "string"
        },
        {
          "internalType": "string",
          "name": "description",
          "type": "string"
        },
        {
          "internalType": "uint256",
          "name": "area",
          "type": "uint256"
        },
        {
          "internalType": "uint256",
          "name": "registrationDate",
          "type": "uint256"
        },
        {
          "internalType": "uint256",
          "name": "price",
          "type": "uint256"
        },
        {
          "internalType": "enum PropertyRegistry.PropertyStatus",
          "name": "status",
          "type": "uint8"
        },
        {
          "internalType": "bool",
          "name": "exists",
          "type": "bool"
        },
        {
          "internalType": "bytes32",
          "name": "documentHash",
          "type": "bytes32"
        }
      ],
      "stateMutability": "view",
      "type": "function"
    },
    {
      "inputs": [],
      "name": "propertyCounter",
      "outputs": [
        {
          "internalType": "uint256",
          "name": "",
          "type": "uint256"
        }
      ],
      "stateMutability": "view",
      "type": "function"
    },
    {
      "inputs": [
        {
          "internalType": "string",
          "name": "_propertyAddress",
          "type": "string"
        },
        {
          "internalType": "string",
          "name": "_description",
          "type": "string"
        },
        {
          "internalType": "uint256",
          "name": "_area",
          "type": "uint256"
        },
        {
          "internalType": "bytes32",
          "name": "_documentHash",
          "type": "bytes32"
        }
      ],
      "name": "registerProperty",
      "outputs": [
        {
          "internalType": "uint256",
          "name": "",
          "type": "uint256"
        }
      ],
      "stateMutability": "nonpayable",
      "type": "function"
    },
    {
      "inputs": [
        {
          "internalType": "bytes32",
          "name": "",
          "type": "bytes32"
        }
      ],
      "name": "registeredDocumentHashes",
      "outputs": [
        {
          "internalType": "bool",
          "name": "",
          "type": "bool"
        }
      ],
      "stateMutability": "view",
      "type": "function"
    },
    {
      "inputs": [
        {
          "internalType": "address",
          "name": "_verifier",
          "type": "address"
        }
      ],
      "name": "removeVerifier",
      "outputs": [],
      "stateMutability": "nonpayable",
      "type": "function"
    },
    {
      "inputs": [
        {
          "internalType": "uint256",
          "name": "_propertyId",
          "type": "uint256"
        },
        {
          "internalType": "address",
          "name": "_newOwner",
          "type": "address"
        }
      ],
      "name": "transferProperty",
      "outputs": [],
      "stateMutability": "nonpayable",
      "type": "function"
    },
    {
      "inputs": [
        {
          "internalType": "uint256",
          "name": "_propertyId",
          "type": "uint256"
        },
        {
          "internalType": "string",
          "name": "_description",
          "type": "string"
        },
        {
          "internalType": "uint256",
          "name": "_area",
          "type": "uint256"
        }
      ],
      "name": "updatePropertyDetails",
      "outputs": [],
      "stateMutability": "nonpayable",
      "type": "function"
    },
    {
      "inputs": [
        {
          "internalType": "address",
          "name": "",
          "type": "address"
        }
      ],
      "name": "verifiers",
      "outputs": [
        {
          "internalType": "bool",
          "name": "",
          "type": "bool"
        }
      ],
      "stateMutability": "view",
      "type": "function"
    },
    {
      "inputs": [
        {
          "internalType": "uint256",
          "name": "_propertyId",
          "type": "uint256"
        }
      ],
      "name": "verifyProperty",
      "outputs": [],
      "stateMutability": "nonpayable",
      "type": "function"
    },
    {
      "inputs": [],
      "name": "withdraw",
      "outputs": [],
      "stateMutability": "nonpayable",
      "type": "function"
    }
  ],
  "bytecode": "0x608060405234801561001057600080fd5b50600080546001600160a01b031916339081178255600182815590825260066020526040909120805460ff19169091179055612874806100516000396000f3fe6080604052600436106101405760003560e01c8063b3c73a56116100b6578063e80d7fec1161006f578063e80d7fec146103a0578063f1dbaccb146103c0578063f7b10808146103ed578063f851a44014610423578063fbdf66b11461045b578063ff3562371461048b57600080fd5b8063b3c73a56146102cc578063c9cf2adc146102ec578063ca2dfd0a1461031d578063cb6448971461033d578063d090e47e1461036a578063e5ab67671461038057600080fd5b806356fb97bb1161010857806356fb97bb146102165780636c824487146102365780636f9fb98a146102665780636fa830a6146102795780638f48bd5b1461028c5780639000b3d6146102ac57600080fd5b806317aaf5ed1461014557806332665ffb1461016957806333105218146101965780633ccfd60b146101df5780634212a8ae146101f6575b600080fd5b34801561015157600080fd5b506001545b6040519081526020015b60405180910390f35b34801561017557600080fd5b50610189610184366004612057565b6104ab565b60405161016091906120ee565b3480156101a257600080fd5b506101cf6101b13660046121c6565b6001600160a01b031660009081526006602052604090205460ff1690565b6040519015158152602001610160565b3480156101eb57600080fd5b506101f46106c7565b005b34801561020257600080fd5b506101f4610211366004612057565b6107d1565b34801561022257600080fd5b506101f46102313660046121e8565b610981565b34801561024257600080fd5b506101cf6102513660046121c6565b60066020526000908152604090205460ff1681565b34801561027257600080fd5b5047610156565b6101f4610287366004612057565b610a6f565b34801561029857600080fd5b506101566102a736600461221d565b610ea7565b3480156102b857600080fd5b506101f46102c73660046121c6565b610ed8565b3480156102d857600080fd5b506101f46102e73660046122ea565b610ff4565b3480156102f857600080fd5b5061030c61030736600461233a565b611126565b60405161016095949392919061235c565b34801561032957600080fd5b506101f46103383660046121c6565b61120e565b34801561034957600080fd5b5061035d6103583660046121c6565b61132e565b60405161016091906123a1565b34801561037657600080fd5b5061015660015481565b34801561038c57600080fd5b5061015661039b3660046123e5565b61139a565b3480156103ac57600080fd5b506101f46103bb36600461233a565b6117b5565b3480156103cc57600080fd5b506103e06103db366004612057565b61199a565b6040516101609190612459565b3480156103f957600080fd5b5061040d610408366004612057565b611b06565b6040516101609a999897969594939291906124fa565b34801561042f57600080fd5b50600054610443906001600160a01b031681565b6040516001600160a01b039091168152602001610160565b34801561046757600080fd5b506101cf610476366004612057565b60056020526000908152604090205460ff1681565b34801561049757600080fd5b506101f46104a6366004612575565b611c76565b6104b3611fea565b6000828152600260205260409020600701548290610100900460ff166104f45760405162461bcd60e51b81526004016104eb906125a1565b60405180910390fd5b6000838152600260208181526040928390208351610140810185528154815260018201546001600160a01b0316928101929092529182018054919384019161053b906125d8565b80601f0160208091040260200160405190810160405280929190818152602001828054610567906125d8565b80156105b45780601f10610589576101008083540402835291602001916105b4565b820191906000526020600020905b81548152906001019060200180831161059757829003601f168201915b505050505081526020016003820180546105cd906125d8565b80601f01602080910402602001604051908101604052809291908181526020018280546105f9906125d8565b80156106465780601f1061061b57610100808354040283529160200191610646565b820191906000526020600020905b81548152906001019060200180831161062957829003601f168201915b505050918352505060048281015460208301526005830154604083015260068301546060830152600783015460809092019160ff169081111561068b5761068b6120b6565b600481111561069c5761069c6120b6565b81526007820154610100900460ff161515602082015260089091015460409091015291505b50919050565b6000546001600160a01b031633146106f15760405162461bcd60e51b81526004016104eb9061260c565b47806107365760405162461bcd60e51b81526020600482015260146024820152734e6f2066756e647320746f20776974686472617760601b60448201526064016104eb565b600080546040516001600160a01b039091169083908381818185875af1925050503d8060008114610783576040519150601f19603f3d011682016040523d82523d6000602084013e610788565b606091505b50509050806107cd5760405162461bcd60e51b815260206004820152601160248201527015da5d1a191c985dd85b0819985a5b1959607a1b60448201526064016104eb565b5050565b3360009081526006602052604090205460ff16806107f957506000546001600160a01b031633145b6108455760405162461bcd60e51b815260206004820152601a60248201527f4e6f7420616e20617574686f72697a656420766572696669657200000000000060448201526064016104eb565b6000818152600260205260409020600701548190610100900460ff1661087d5760405162461bcd60e51b81526004016104eb906125a1565b600082815260026020526040812090600782015460ff1660048111156108a5576108a56120b6565b146108f25760405162461bcd60e51b815260206004820152601e60248201527f50726f7065727479206e6f7420696e2070656e64696e6720737461747573000060448201526064016104eb565b60078101805460ff19811660011790915560405142815260ff90911690339085907f4fdf86fb949d94ea64686b0c53072d1e62e2b9205a072cd65dbacfe8f7556dcf9060200160405180910390a3837fd98efe2dd5b76c52df27ca251c889b2339e9f49fdd2e02e72abbae1136a1f01482600160405161097392919061264e565b60405180910390a250505050565b6000546001600160a01b031633146109ab5760405162461bcd60e51b81526004016104eb9061260c565b6000828152600260205260409020600701548290610100900460ff166109e35760405162461bcd60e51b81526004016104eb906125a1565b6000838152600260205260409020600781015460ff168315610a135760078201805460ff19166004179055610a23565b60078201805460ff191660011790555b600782015460405186917fd98efe2dd5b76c52df27ca251c889b2339e9f49fdd2e02e72abbae1136a1f01491610a6091859160ff9091169061264e565b60405180910390a25050505050565b6000818152600260205260409020600701548190610100900460ff16610aa75760405162461bcd60e51b81526004016104eb906125a1565b600082815260026020819052604090912090600782015460ff166004811115610ad257610ad26120b6565b14610b175760405162461bcd60e51b815260206004820152601560248201527450726f7065727479206e6f7420666f722073616c6560581b60448201526064016104eb565b60018101546001600160a01b03163303610b735760405162461bcd60e51b815260206004820152601c60248201527f43616e6e6f742062757920796f7572206f776e2070726f70657274790000000060448201526064016104eb565b8060060154341015610bbe5760405162461bcd60e51b8152602060048201526014602482015273125b9cdd59999a58da595b9d081c185e5b595b9d60621b60448201526064016104eb565b600181018054600683018054336001600160a01b031984161790935560078401805460ff19166003179055600090556001600160a01b031690610c018286611f16565b336000818152600460208181526040808420805460018181018355918652838620018b90558a85526003808452828620835160a0810185526001600160a01b038b81168252818701998a5242828701908152606083018c815287518089019098528988526353616c6560e01b888a01526080840197885284548088018655948b5297909920825160059094020180549382166001600160a01b03199485161781559951948a018054959091169490921693909317905594516002870155915193850193909355915191929190820190610cda90826126b8565b5050506000826001600160a01b03168260405160006040518083038185875af1925050503d8060008114610d2a576040519150601f19603f3d011682016040523d82523d6000602084013e610d2f565b606091505b5050905080610d775760405162461bcd60e51b81526020600482015260146024820152732330b4b632b2103a379039b2b7321022ba3432b960611b60448201526064016104eb565b81341115610e2057600033610d8c843461278e565b604051600081818185875af1925050503d8060008114610dc8576040519150601f19603f3d011682016040523d82523d6000602084013e610dcd565b606091505b5050905080610e1e5760405162461bcd60e51b815260206004820152601760248201527f4661696c656420746f20726566756e642065786365737300000000000000000060448201526064016104eb565b505b6040805183815242602082015233916001600160a01b0386169189917ff17ae70939d4cf0fffcec7ff83a385ce9409eec6273301c19c391c703d40364d910160405180910390a460405133906001600160a01b0385169088907f16b85f49bf01212961345d3016c9a531894accf62eb7680f2045d79185cc0ec090600090a4505050505050565b60046020528160005260406000208181548110610ec357600080fd5b90600052602060002001600091509150505481565b6000546001600160a01b03163314610f025760405162461bcd60e51b81526004016104eb9061260c565b6001600160a01b038116610f4a5760405162461bcd60e51b815260206004820152600f60248201526e496e76616c6964206164647265737360881b60448201526064016104eb565b6001600160a01b03811660009081526006602052604090205460ff1615610fa85760405162461bcd60e51b815260206004820152601260248201527120b63932b0b23c9030903b32b934b334b2b960711b60448201526064016104eb565b6001600160a01b038116600081815260066020526040808220805460ff19166001179055517f6d05492139c5ea989514a5d2150c028041e5c087e2a39967f67dc7d2655adb819190a250565b6000838152600260205260409020600701548390610100900460ff1661102c5760405162461bcd60e51b81526004016104eb906125a1565b6000818152600260205260409020600101546001600160a01b031633146110655760405162461bcd60e51b81526004016104eb906127a7565b60008351116110ad5760405162461bcd60e51b815260206004820152601460248201527311195cd8dc9a5c1d1a5bdb881c995c5d5a5c995960621b60448201526064016104eb565b600082116110fd5760405162461bcd60e51b815260206004820152601b60248201527f41726561206d7573742062652067726561746572207468616e2030000000000060448201526064016104eb565b60008481526002602052604090206003810161111985826126b8565b5060040191909155505050565b6003602052816000526040600020818154811061114257600080fd5b6000918252602090912060059091020180546001820154600283015460038401546004850180546001600160a01b03958616985093909416955090939092909161118b906125d8565b80601f01602080910402602001604051908101604052809291908181526020018280546111b7906125d8565b80156112045780601f106111d957610100808354040283529160200191611204565b820191906000526020600020905b8154815290600101906020018083116111e757829003601f168201915b5050505050905085565b6000546001600160a01b031633146112385760405162461bcd60e51b81526004016104eb9061260c565b6001600160a01b03811660009081526006602052604090205460ff166112915760405162461bcd60e51b815260206004820152600e60248201526d2737ba1030903b32b934b334b2b960911b60448201526064016104eb565b6000546001600160a01b03908116908216036112e55760405162461bcd60e51b815260206004820152601360248201527221b0b73737ba103932b6b7bb329030b236b4b760691b60448201526064016104eb565b6001600160a01b038116600081815260066020526040808220805460ff19169055517f44a3cd4eb5cc5748f6169df057b1cb2ae4c383e87cd94663c430e095d4cba4249190a250565b6001600160a01b03811660009081526004602090815260409182902080548351818402810184019094528084526060939283018282801561138e57602002820191906000526020600020905b81548152602001906001019080831161137a575b50505050509050919050565b6000808551116113ec5760405162461bcd60e51b815260206004820152601960248201527f50726f706572747920616464726573732072657175697265640000000000000060448201526064016104eb565b60008451116114345760405162461bcd60e51b815260206004820152601460248201527311195cd8dc9a5c1d1a5bdb881c995c5d5a5c995960621b60448201526064016104eb565b600083116114845760405162461bcd60e51b815260206004820152601b60248201527f41726561206d7573742062652067726561746572207468616e2030000000000060448201526064016104eb565b816114ca5760405162461bcd60e51b8152602060048201526016602482015275111bd8dd5b595b9d081a185cda081c995c5d5a5c995960521b60448201526064016104eb565b60008281526005602052604090205460ff16156115295760405162461bcd60e51b815260206004820152601b60248201527f446f63756d656e7420616c72656164792072656769737465726564000000000060448201526064016104eb565b60018054906000611539836127d7565b9091555050600154604080516101408101825282815233602082015290810187905260608101869052608081018590524260a0820152600060c0820181905260e082019081526001602080830182905260409283018790526000858152600280835290849020855181559185015192820180546001600160a01b0319166001600160a01b039094169390931790925591830151908201906115da90826126b8565b50606082015160038201906115ef90826126b8565b506080820151816004015560a0820151816005015560c0820151816006015560e08201518160070160006101000a81548160ff02191690836004811115611638576116386120b6565b02179055506101008281015160078301805491151590920261ff0019909116179055610120909101516008909101556000838152600560208181526040808420805460ff1916600190811790915533808652600480855283872080548085018255908852858820018890558787526003808652848820855160a08101875289815280880194855242818801908152606082018b81528851808a01909952601489527324b734ba34b0b6102932b3b4b9ba3930ba34b7b760611b898b01526080830198895283548089018555938c5298909a2081519290990290980180546001600160a01b039283166001600160a01b0319918216178255945195810180549690921695909416949094179093559551600282015592519083015551919290919082019061176590826126b8565b505050336001600160a01b0316817f4a94c8d5fab40a5edfd34ed099a279029ee376bf6a571684e0cffd8e00216dbc88426040516117a49291906127f0565b60405180910390a395945050505050565b6000828152600260205260409020600701548290610100900460ff166117ed5760405162461bcd60e51b81526004016104eb906125a1565b6000818152600260205260409020600101546001600160a01b031633146118265760405162461bcd60e51b81526004016104eb906127a7565b60008381526002602052604090206001600782015460ff16600481111561184f5761184f6120b6565b148061187357506003600782015460ff166004811115611871576118716120b6565b145b6118bf5760405162461bcd60e51b815260206004820152601f60248201527f50726f7065727479206d7573742062652076657269666965642066697273740060448201526064016104eb565b6000831161190f5760405162461bcd60e51b815260206004820152601c60248201527f5072696365206d7573742062652067726561746572207468616e20300000000060448201526064016104eb565b60078101805460ff198116600217909155600682018490556040805185815242602082015260ff9092169186917fc604b00c217f29b85de66369d46a003279149e938dd05c680119aa82b237ed5e910160405180910390a2847fd98efe2dd5b76c52df27ca251c889b2339e9f49fdd2e02e72abbae1136a1f014826002604051610a6092919061264e565b6000818152600260205260409020600701546060908290610100900460ff166119d55760405162461bcd60e51b81526004016104eb906125a1565b600083815260036020908152604080832080548251818502810185019093528083529193909284015b82821015611afa5760008481526020908190206040805160a0810182526005860290920180546001600160a01b0390811684526001820154169383019390935260028301549082015260038201546060820152600482018054919291608084019190611a69906125d8565b80601f0160208091040260200160405190810160405280929190818152602001828054611a95906125d8565b8015611ae25780601f10611ab757610100808354040283529160200191611ae2565b820191906000526020600020905b815481529060010190602001808311611ac557829003601f168201915b505050505081525050815260200190600101906119fe565b50505050915050919050565b600260208190526000918252604090912080546001820154928201805491936001600160a01b03169291611b39906125d8565b80601f0160208091040260200160405190810160405280929190818152602001828054611b65906125d8565b8015611bb25780601f10611b8757610100808354040283529160200191611bb2565b820191906000526020600020905b815481529060010190602001808311611b9557829003601f168201915b505050505090806003018054611bc7906125d8565b80601f0160208091040260200160405190810160405280929190818152602001828054611bf3906125d8565b8015611c405780601f10611c1557610100808354040283529160200191611c40565b820191906000526020600020905b815481529060010190602001808311611c2357829003601f168201915b505050600484015460058501546006860154600787015460089097015495969295919450925060ff80831692610100900416908a565b6000828152600260205260409020600701548290610100900460ff16611cae5760405162461bcd60e51b81526004016104eb906125a1565b6000818152600260205260409020600101546001600160a01b03163314611ce75760405162461bcd60e51b81526004016104eb906127a7565b6001600160a01b038216611d3d5760405162461bcd60e51b815260206004820152601960248201527f496e76616c6964206e6577206f776e657220616464726573730000000000000060448201526064016104eb565b336001600160a01b03831603611d955760405162461bcd60e51b815260206004820152601b60248201527f43616e6e6f74207472616e7366657220746f20796f757273656c66000000000060448201526064016104eb565b6000838152600260205260409020600180820180546001600160a01b038681166001600160a01b031983161790925560078401805492909116929160ff19168280021790555060006006830155611dec8186611f16565b6001600160a01b038085166000818152600460208181526040808420805460018181018355918652838620018c90558b85526003808452828620835160a0810185528a8a1681528086019889524281860190815260608201898152865180880190975260088752672a3930b739b332b960c11b878901526080830196875283548087018555938a529690982081516005909302018054928b166001600160a01b03199384161781559851938901805494909a1693909116929092179097559351600286015590519484019490945592519092820190611ecb90826126b8565b505050836001600160a01b0316816001600160a01b0316867f16b85f49bf01212961345d3016c9a531894accf62eb7680f2045d79185cc0ec060405160405180910390a45050505050565b6001600160a01b0382166000908152600460205260408120905b8154811015611fe45782828281548110611f4c57611f4c612812565b906000526020600020015403611fd25781548290611f6c9060019061278e565b81548110611f7c57611f7c612812565b9060005260206000200154828281548110611f9957611f99612812565b906000526020600020018190555081805480611fb757611fb7612828565b60019003818190600052602060002001600090559055611fe4565b80611fdc816127d7565b915050611f30565b50505050565b6040518061014001604052806000815260200160006001600160a01b03168152602001606081526020016060815260200160008152602001600081526020016000815260200160006004811115612043576120436120b6565b815260006020820181905260409091015290565b60006020828403121561206957600080fd5b5035919050565b6000815180845260005b818110156120965760208185018101518683018201520161207a565b506000602082860101526020601f19601f83011685010191505092915050565b634e487b7160e01b600052602160045260246000fd5b600581106120ea57634e487b7160e01b600052602160045260246000fd5b9052565b60208152815160208201526000602083015161211560408401826001600160a01b03169052565b506040830151610140806060850152612132610160850183612070565b91506060850151601f1985840301608086015261214f8382612070565b925050608085015160a085015260a085015160c085015260c085015160e085015260e0850151610100612184818701836120cc565b86015190506101206121998682018315159052565b959095015193019290925250919050565b80356001600160a01b03811681146121c157600080fd5b919050565b6000602082840312156121d857600080fd5b6121e1826121aa565b9392505050565b600080604083850312156121fb57600080fd5b823591506020830135801515811461221257600080fd5b809150509250929050565b6000806040838503121561223057600080fd5b612239836121aa565b946020939093013593505050565b634e487b7160e01b600052604160045260246000fd5b600082601f83011261226e57600080fd5b813567ffffffffffffffff8082111561228957612289612247565b604051601f8301601f19908116603f011681019082821181831017156122b1576122b1612247565b816040528381528660208588010111156122ca57600080fd5b836020870160208301376000602085830101528094505050505092915050565b6000806000606084860312156122ff57600080fd5b83359250602084013567ffffffffffffffff81111561231d57600080fd5b6123298682870161225d565b925050604084013590509250925092565b6000806040838503121561234d57600080fd5b50508035926020909101359150565b6001600160a01b03868116825285166020820152604081018490526060810183905260a06080820181905260009061239690830184612070565b979650505050505050565b6020808252825182820181905260009190848201906040850190845b818110156123d9578351835292840192918401916001016123bd565b50909695505050505050565b600080600080608085870312156123fb57600080fd5b843567ffffffffffffffff8082111561241357600080fd5b61241f8883890161225d565b9550602087013591508082111561243557600080fd5b506124428782880161225d565b949794965050505060408301359260600135919050565b60006020808301818452808551808352604092508286019150828160051b87010184880160005b838110156124ec57888303603f19018552815180516001600160a01b03908116855288820151168885015286810151878501526060808201519085015260809081015160a0918501829052906124d881860183612070565b968901969450505090860190600101612480565b509098975050505050505050565b8a81526001600160a01b038a166020820152610140604082018190526000906125258382018c612070565b90508281036060840152612539818b612070565b9150508760808301528660a08301528560c083015261255b60e08301866120cc565b921515610100820152610120015298975050505050505050565b6000806040838503121561258857600080fd5b82359150612598602084016121aa565b90509250929050565b60208082526017908201527f50726f706572747920646f6573206e6f74206578697374000000000000000000604082015260600190565b600181811c908216806125ec57607f821691505b6020821081036106c157634e487b7160e01b600052602260045260246000fd5b60208082526022908201527f4f6e6c792061646d696e2063616e20706572666f726d2074686973206163746960408201526137b760f11b606082015260800190565b6040810161265c82856120cc565b6121e160208301846120cc565b601f8211156126b357600081815260208120601f850160051c810160208610156126905750805b601f850160051c820191505b818110156126af5782815560010161269c565b5050505b505050565b815167ffffffffffffffff8111156126d2576126d2612247565b6126e6816126e084546125d8565b84612669565b602080601f83116001811461271b57600084156127035750858301515b600019600386901b1c1916600185901b1785556126af565b600085815260208120601f198616915b8281101561274a5788860151825594840194600190910190840161272b565b50858210156127685787850151600019600388901b60f8161c191681555b5050505050600190811b01905550565b634e487b7160e01b600052601160045260246000fd5b818103818111156127a1576127a1612778565b92915050565b6020808252601690820152752737ba103a343290383937b832b93a3c9037bbb732b960511b604082015260600190565b6000600182016127e9576127e9612778565b5060010190565b6040815260006128036040830185612070565b90508260208301529392505050565b634e487b7160e01b600052603260045260246000fd5b634e487b7160e01b600052603160045260246000fdfea2646970667358221220229eff1721ee88f5ed68acb6434d4ca1610ddd8fa30b783dc21b17fb2db5b7e764736f6c63430008130033",
  "linkReferences": {},
  "deployedLinkReferences": {}
}